:100000000C9462000C947F000C947F000C947F0091
:100010000C947F000C947F000C947F000C947F0064
:100020000C947F000C947F000C947F000C947F0054
:100030000C947F000C947F000C947F000C947F0044
:100040000C9457010C947F000C947F000C947F005B
:100050000C947F000C947F000C947F000C947F0024
:100060000C947F000C947F00000000002400270007
:100070002A0000000000250028002B0000000000DE
:1000800023002600290004040404040404040202DA
:100090000202020203030303030301020408102007
:1000A0004080010204081020010204081020000012
:1000B0000008000201000003040700000000000027
:1000C0000000B40311241FBECFEFD8E0DEBFCDBFC8
:1000D00022E0A0E0B1E001C01D92A537B207E1F730
:1000E00010E0C2E6D0E004C02197FE010E94F503B3
:1000F000C136D107C9F70E94A1010C94FB030C94EF
:100100000000833081F028F4813099F08230A9F02A
:1001100008958730A9F08830C9F08430B1F4809117
:1001200080008F7D03C0809180008F778093800056
:10013000089584B58F7784BD089584B58F7DFBCFF6
:100140008091B0008F778093B00008958091B000C7
:100150008F7DF9CFCF93DF93282F30E0F901E2555F
:10016000FF4F8491F901E656FF4FD491F901EA5708
:10017000FF4FC491CC23A1F081110E948100EC2F8C
:10018000F0E0EE0FFF1FE458FF4FA591B491EC9102
:10019000ED2381E090E009F480E0DF91CF910895B4
:1001A00080E090E0FACF1F93CF93DF93282F30E0C9
:1001B000F901E255FF4F8491F901E656FF4FD491C2
:1001C000F901EA57FF4FC491CC23A9F0162F8111F2
:1001D0000E948100EC2FF0E0EE0FFF1FEE58FF4F62
:1001E000A591B4918FB7F894EC91111108C0D095F6
:1001F000DE23DC938FBFDF91CF911F910895DE2B1B
:10020000F8CFCF93DF9390E0FC01E656FF4F2491A7
:100210008A579F4FFC0184918823D1F090E0880F8A
:10022000991FFC01E859FF4FA591B491FC01EE58CC
:10023000FF4FC591D49161110EC09FB7F8948C9176
:10024000E22FE0958E238C932881E223E8839FBFE1
:10025000DF91CF9108958FB7F894EC91E22BEC9356
:100260008FBFF6CF3FB7F89480915B0290915C020C
:10027000A0915D02B0915E0226B5A89B05C02F3FFC
:1002800019F00196A11DB11D3FBFBA2FA92F982FBC
:100290008827BC01CD01620F711D811D911D42E0B7
:1002A000660F771F881F991F4A95D1F708951F92EF
:1002B0000F920FB60F9211242F933F938F939F931A
:1002C000AF93BF938091570290915802A091590229
:1002D000B0915A023091560223E0230F2D3758F582
:1002E0000196A11DB11D2093560280935702909351
:1002F0005802A0935902B0935A0280915B029091E8
:100300005C02A0915D02B0915E020196A11DB11D3B
:1003100080935B0290935C02A0935D02B0935E02B7
:10032000BF91AF919F918F913F912F910F900FBEF1
:100330000F901F90189526E8230F0296A11DB11D5E
:10034000D2CFCF93DF9300D000D000D0CDB7DEB7AF
:10035000789484B5826084BD84B5816084BD85B5A0
:10036000826085BD85B5816085BD80916E008160AC
:1003700080936E0010928100809181008260809352
:100380008100809181008160809381008091800054
:100390008160809380008091B10084608093B1007F
:1003A0008091B00081608093B00080917A00846079
:1003B00080937A0080917A00826080937A008091A5
:1003C0007A00816080937A0080917A0080688093BF
:1003D0007A001092C10061E081E00E94010161E0B9
:1003E00080E00E94010161E082E10E94010161E080
:1003F00083E10E94010160E08DE00E94010160E064
:100400008CE00E94010160E08BE00E94010160E04D
:100410008AE00E94010160E089E00E94010160E041
:1004200088E00E94010160E087E00E94010160E035
:1004300086E00E94010160E085E00E94010160E029
:1004400084E00E94010160E083E00E94010160E01D
:1004500082E00E94010161E08EE00E94010161E002
:100460008FE00E94010161E080E10E94010161E0F2
:1004700081E10E94010182E00E94AA004C01909358
:1004800074028093730283E00E94AA005C0190933F
:1004900072028093710284E00E94AA006C01909322
:1004A000700280936F0285E00E94AA007C01909305
:1004B0006E0280936D0286E00E94AA008C019093E8
:1004C0006C0280936B0287E00E94AA009E838D835A
:1004D00090936A028093690288E00E94AA003C011E
:1004E000909368028093670289E00E94AA002C0121
:1004F00090936602809365028AE00E94AA001C0124
:1005000090936402809363028BE00E94AA009A8316
:10051000898390936202809361028CE00E94AA001A
:100520009C838B839093600280935F028DE00E9496
:10053000AA00BC0141E090E08A94892809F040E0DB
:10054000242F392FAA94AB2811F42F5F3F4FCA9460
:10055000CD2811F42F5F3F4FEA94EF2811F42F5F5D
:100560003F4F0130110511F42F5F3F4F8D819E8168
:10057000019711F42F5F3F4F6A94672811F42F5FA2
:100580003F4F4A94452811F42F5F3F4F2A94232868
:1005900011F42F5F3F4F89819A81019711F42F5FEA
:1005A0003F4F8B819C81019711F42F5F3F4F61304A
:1005B000710511F42F5F3F4FECE0F0E0E21BF30B0D
:1005C0003197EC30F10580F4E851FD4F0C94F503C0
:1005D000FA0200034C035A0364036E0374037A03A4
:1005E0007C037E038C03AA0360E082E10E94D300B7
:1005F00060E065C060E082E10E94D30060E069C015
:1006000060E082E10E94D30060E083E10E94D300B9
:1006100061E080E00E94D30060E081E00E94D300AE
:1006200060E08EE00E94D30060E08FE00E94D30083
:1006300060E080E10E94D30060E081E10E94D3008D
:100640000E9432014B015C0184E6C82ED12CE12CC2
:10065000F12C0E943201681979098A099B09683EC8
:10066000734081059105A8F391E0C91AD108E1080A
:10067000F10828EE820E23E0921EA11CB11CC114C9
:10068000D104E104F10429F780E090E0892B09F41A
:10069000F2CE0E940000EFCE60E082E10E94D30023
:1006A00060E083E10E94D30061E080E00E94D3001B
:1006B00061E0B3CF60E082E10E94D30061E083E1BA
:1006C0000E94D30060E0A5CF60E082E10E94D300E9
:1006D00061E083E10E94D30060E0E7CF60E082E167
:1006E0000E94D30061E091CF60E082E10E94D300DC
:1006F00061E0D7CF61E079CF61E07DCF60E082E15A
:100700000E94D30060E083E10E94D30060E080E0BB
:100710000E94D30060E00DC060E082E10E94D3003F
:1007200060E083E10E94D30060E080E00E94D3009B
:1007300061E081E00E94D30060E08EE00E94D3007F
:1007400060E08FE00E94D30060E080E10E94D3006F
:1007500061E073CF60E082E10E94D30060E083E15A
:100760000E94D30061E0D3CFCF93DF938FB7F8948B
:1007700040915702509158026091590270915A026B
:100780008FBFC6E3D2E0E2EDF1E02AEA31E0199250
:1007900011921192D9014D935D936D937D939D01BB
:1007A000CF01825B9F4FDC011D921C92B1E0E63EBF
:1007B000FB0769F710925502109254021092000143
:1007C00010921101109222011092330110924401F3
:1007D00010925501109266011092770110928801D3
:1007E00010929901DF91CF910895EE0FFF1F0590B0
:0A07F000F491E02D0994F894FFCF76
:00000001FF
