:100000000C9462000C947F000C947F000C947F0091
:100010000C947F000C947F000C947F000C947F0064
:100020000C947F000C947F000C947F000C947F0054
:100030000C947F000C947F000C947F000C947F0044
:100040000C9499010C947F000C947F000C947F0019
:100050000C947F000C947F000C947F000C947F0024
:100060000C947F000C947F00000000002400270007
:100070002A0000000000250028002B0000000000DE
:1000800023002600290004040404040404040202DA
:100090000202020203030303030301020408102007
:1000A0004080010204081020010204081020000012
:1000B0000008000201000003040700000000000027
:1000C0000000C50311241FBECFEFD8E0DEBFCDBFB7
:1000D00022E0A0E0B1E001C01D92A539B207E1F72E
:1000E00010E0C2E6D0E004C02197FE010E941F0488
:1000F000C136D107C9F70E94E3010C9425040C9482
:100100000000833081F028F4813099F08230A9F02A
:1001100008958730A9F08830C9F08430B1F4809117
:1001200080008F7D03C0809180008F778093800056
:10013000089584B58F7784BD089584B58F7DFBCFF6
:100140008091B0008F778093B00008958091B000C7
:100150008F7DF9CFCF93DF93282F30E0F901E2555F
:10016000FF4F8491F901E656FF4FD491F901EA5708
:10017000FF4FC491CC23A1F081110E948100EC2F8C
:10018000F0E0EE0FFF1FE458FF4FA591B491EC9102
:10019000ED2381E090E009F480E0DF91CF910895B4
:1001A00080E090E0FACF1F93CF93DF93282F30E0C9
:1001B000F901E255FF4F8491F901E656FF4FD491C2
:1001C000F901EA57FF4FC491CC23A9F0162F8111F2
:1001D0000E948100EC2FF0E0EE0FFF1FEE58FF4F62
:1001E000A591B4918FB7F894EC91111108C0D095F6
:1001F000DE23DC938FBFDF91CF911F910895DE2B1B
:10020000F8CFCF93DF9390E0FC01E656FF4F2491A7
:100210008A579F4FFC0184918823D1F090E0880F8A
:10022000991FFC01E859FF4FA591B491FC01EE58CC
:10023000FF4FC591D49161110EC09FB7F8948C9176
:10024000E22FE0958E238C932881E223E8839FBFE1
:10025000DF91CF9108958FB7F894EC91E22BEC9356
:100260008FBFF6CF3FB7F89480915B0290915C020C
:10027000A0915D02B0915E0226B5A89B05C02F3FFC
:1002800019F00196A11DB11D3FBFBA2FA92F982FBC
:100290008827BC01CD01620F711D811D911D42E0B7
:1002A000660F771F881F991F4A95D1F708958F927F
:1002B0009F92AF92BF92CF92DF92EF92FF920E94F5
:1002C00032014B015C0184EFC82EDD24D394E12C74
:1002D000F12C0E943201681979098A099B09683E4C
:1002E000734081059105A8F321E0C21AD108E10805
:1002F000F10888EE880E83E0981EA11CB11CC11481
:10030000D104E104F10429F7FF90EF90DF90CF9042
:10031000BF90AF909F908F9008952FB7F894609101
:100320005702709158028091590290915A022FBF42
:1003300008951F920F920FB60F9211242F933F939F
:100340008F939F93AF93BF938091570290915802E0
:10035000A0915902B0915A023091560223E0230F26
:100360002D3758F50196A11DB11D2093560280939B
:10037000570290935802A0935902B0935A02809169
:100380005B0290915C02A0915D02B0915E020196C9
:10039000A11DB11D80935B0290935C02A0935D024E
:1003A000B0935E02BF91AF919F918F913F912F913A
:1003B0000F900FBE0F901F90189526E8230F0296FE
:1003C000A11DB11DD2CF789484B5826084BD84B55F
:1003D000816084BD85B5826085BD85B5816085BD40
:1003E00080916E00816080936E00109281008091F8
:1003F0008100826080938100809181008160809380
:100400008100809180008160809380008091B100A4
:1004100084608093B1008091B00081608093B000CF
:1004200080917A00846080937A0080917A00826063
:1004300080937A0080917A00816080937A00809125
:100440007A00806880937A001092C10060E081E0B9
:100450000E94010160E080E00E94010160E08FE005
:100460000E94010161E08DE00E94010161E08CE0E9
:100470000E94010161E08BE00E94010161E08AE0DD
:100480000E94010161E089E00E94010161E088E0D1
:100490000E94010161E087E00E94010161E086E0C5
:1004A0000E94010161E085E00E94010161E084E0B9
:1004B0000E94010161E083E00E94010161E082E0AD
:1004C0000E94010161E08EE00E94010161E080E193
:1004D0000E94010161E081E10E94010161E082E18D
:1004E0000E94010161E083E10E9401018DE892E038
:1004F000E1E8F2E011928E179F07E1F748E8842EB9
:1005000043E1942EA12CB12C50E0C52E50E0D52E05
:10051000EE24E394F12C80E00E94AA008C019093D9
:1005200094028093930281E00E94AA00EC019093D0
:100530009202809391028FE00E94AA00013011057F
:10054000D9F500918F02109190020C301105A4F59D
:10055000C0918D02D0918E02FE01EF57FD4F81E0D8
:1005600080830E948D01FE01EE0FFF1FE759FD4FB2
:10057000718360832196CC30D105C9F0D0938E026F
:10058000C0938D020F5F1F4F1093900200938F0254
:10059000F0926802E09267020E948D0170936602F9
:1005A0006093650261E08EE00E94D3004EC010921D
:1005B0008E0210928D02E6CF219709F08FC0209114
:1005C0008F02309190022115310509F487C0E1E8CE
:1005D000F2E0D0E0C0E08191882399F1FE01EF576D
:1005E000FD4F1082215031093093900220938F02E9
:1005F0000E948D01CC0FDD1FC759DD4F0881198185
:10060000012E000C220B330B601B710B820B930B22
:10061000A50194010E94FD033093640220936302BC
:10062000233031054CF0F0926202E0926102F092C8
:100630006002E0925F02B6CF1092620210926102F5
:10064000F6CF2196CC30D10531F60E94570140906B
:10065000650250906602052C000C660877080E941F
:100660008D01461A570A680A790A89E948168AE309
:1006700058066104710490F08091670290916802BD
:10068000019761F41092680210926702109266025C
:100690001092650260E08EE00E94D30080916102BA
:1006A0009091620261E0019709F060E080E10E94B0
:1006B000D300E0916302F09164023196E830F105D5
:1006C00008F061C0EA59FC4F0C941F0486038603AE
:1006D000A703B103B703BD03BF03C103019709F02B
:1006E000B6CF80915F0290916002019709F0AFCF81
:1006F0001092600210925F021092620210926102E8
:10070000109264021092630260E04DCF60E081E1DC
:100710000E94D30060E082E10E94D30060E083E1A8
:100720000E94D300C1E8D2E012E0899161E081111A
:1007300001C060E0812F0E94D3001F5F1E30A9F727
:10074000C114D10409F4E7CE0E940000E4CE60E0B9
:1007500081E10E94D30060E082E10E94D30061E069
:10076000DECF60E081E10E94D30061E0D4CF60E0A1
:1007700081E10E94D30061E0EFCF61E0C8CF61E08A
:10078000E7CF61E0EFCF61E0F3CFCF93DF930E943B
:100790008D01C6E3D2E0E2EDF1E04AEA51E01992C0
:1007A00011921192DA016D937D938D939D93AD011A
:1007B0009F01225B3F4FD9011D921C92B1E0E63EA2
:1007C000FB0769F710925502109254021092000133
:1007D00010921101109222011092330110924401E3
:1007E00010925501109266011092770110928801C3
:1007F00010929901DF91CF910895A1E21A2EAA1BC0
:10080000BB1BFD010DC0AA1FBB1FEE1FFF1FA217C0
:10081000B307E407F50720F0A21BB30BE40BF50BBD
:10082000661F771F881F991F1A9469F76095709546
:10083000809590959B01AC01BD01CF010895EE0F0D
:0E084000FF1F0590F491E02D0994F894FFCF6E
:00000001FF
